:020000040800F2
:100000000000022081A3020869A202086DA2020872
:1000100079A2020885A2020891A20208000000004D
:100020000000000000000000000000009DA2020887
:10003000A1A2020800000000A5A20208A9A20208CD
:10004000D1A30208D1A30208D1A30208D1A30208B8
:10005000D1A30208D1A30208D1A30208D1A30208A8
:10006000D1A30208D1A30208D1A30208D1A3020898
:10007000D1A30208D1A30208D1A30208D1A3020888
:10008000D1A30208D1A30208D1A30208D1A3020878
:10009000D1A30208D1A30208D1A30208D1A3020868
:1000A000D1A30208D1A30208D1A30208D1A3020858
:1000B000D1A30208D1A30208D1A30208D1A3020848
:1000C000D1A30208D1A30208D1A30208D1A3020838
:1000D000D1A30208D1A30208D1A30208D1A3020828
:1000E000D1A30208D1A30208D1A30208D1A3020818
:1000F000D1A30208D1A30208D1A30208D1A3020808
:10010000D1A30208D1A30208D1A30208D1A30208F7
:10011000D1A30208D1A30208D1A30208D1A30208E7
:10012000D1A30208DDA20208D1A30208D1A30208CC
:10013000D1A30208D1A30208D1A30208D1A30208C7
:10014000D1A30208D1A30208D1A30208D1A30208B7
:10015000D1A30208D1A30208D1A30208D1A30208A7
:10016000D1A30208D1A30208D1A30208D1A3020897
:10017000D1A30208D1A30208D1A302080000000005
:10018000D1A30208D1A30208D1A30208D1A3020877
:10019000D1A30208D1A30208D1A30208E9A2020850
:1001A000ADA20208B9A20208D1A20208D1A3020896
:1001B000D1A30208D1A30208D1A30208D1A3020847
:1001C000D1A30208D1A30208C5A20208D1A3020844
:1001D000D1A30208D1A30208D1A30208D1A3020827
:1001E000D1A30208D1A30208D1A30208D1A3020817
:0801F000D1A30208D1A302080B
:1001F800704700BF0E494FF47A730E4A10B509785C
:1002080004461268B3FBF1F3B2FBF3F000F0BEF85A
:1002180008B90F2C01D9012010BD002221464FF04A
:10022800FF3000F057F8044B00201C6010BD00BFE1
:10023800000002204C0302200400022008B5094BEC
:1002480003201A6842F400721A601A6842F4807235
:100258001A6000F02DF80F20FFF7CCFFFFF7C8FF5A
:10026800002008BD003C0240034A044B11681B787B
:100278000B441360704700BFA41102200000022045
:10028800014B1868704700BFA411022038B5044616
:10029800FFF7F6FF0546631C02D0044B1B781C448D
:1002A800FFF7EEFF401BA042FAD338BD0000022042
:1002B80006494FF6FF0C0002054BCA6800F4E060DF
:1002C80002EA0C0210430343CB60704700ED00E0E4
:1002D8000000FA051A4B00B5DB68C3F30223C3F12B
:1002E800070E03F1040CBEF1040F28BF4FF0040EF3
:1002F800BCF1060F1AD9A3F1030C4FF0FF3303FA30
:100308000CF322EA03024FF0FF33002803FA0EF33E
:1003180021EA030303FA0CF343EA02034FEA031347
:10032800DBB206DB074A13545DF804FB002294464F
:10033800E9E700F00F00044A13545DF804FB00BF1E
:1003480000ED00E000E400E014ED00E0002807DB29
:10035800012300F01F01034A40098B4042F8203076
:10036800704700BF00E100E000280CDB43090122D0
:1003780000F01F0004492033824041F82320BFF3D6
:100388004F8FBFF36F8F704700E100E0431EB3F15A
:10039800807F01D3012070474FF0E02200200549FB
:1003A8004FF0F00C5361072381F823C0906113616B
:1003B800704700BF00ED00E0BFF35F8F044B0021E2
:1003C8005A6A22F480325A62C3F89410704700BF08
:1003D80000ED00E0064B40F00100C3F894005A6AB3
:1003E80042F480325A62BFF34F8FBFF36F8F70476A
:1003F80000ED00E0164A4378C2F89830D2F8A030F1
:1004080023F00103C2F8A0304368C2F89C30C37AD5
:1004180090F80CC01B06017843EA0C7390F80AC0E8
:100428000B43417B43EACC4390F80EC043EA814337
:10043800C17B43EA4C4390F809C043EA0143017A7F
:1004480043EA0C2343EA4103C2F8A030704700BFD7
:1004580000ED00E02DE9F04F002383B001264FF0B6
:100468000308894C03E00133102B00F0D28006FA10
:1004780003F20D6802EA050EAA43F4D14A684FEA6E
:10048800430C02F0030208FA0CF502F1FF39ED43C0
:10049800B9F1010F16D8826802EA0509CA6802FA9A
:1004A8000CF242EA090282604A68D0F80490C2F36A
:1004B800001229EA0E099A4042EA090242604A6893
:1004C80002F00302032A25D0C26802EA05098A68F5
:1004D80002FA0CF242EA0902C2604A6802F0030218
:1004E800022A17D103F007020F694FEAD3099200D5
:1004F80000EB890907FA02FB0F27D9F820A007FAB1
:1005080002F22AEA020A4BEA0A02C9F820204A68DB
:1005180002F0030202FA0CF2D0F800C00CEA05055A
:100528002A4302604A6812F4403F9CD0574D03F0BA
:10053800030C0F276A6C4FEA8C0C42F4804207FACE
:100548000CF9534F6A646A6C23F00305B84205F14D
:10055800804502F4804205F59C350192019AAA680B
:1005680022EA09022AD007F58067B84254D0494FD9
:10057800B84258D0DFF8209148455BD0DFF81C918D
:1005880048455ED0DFF81891484568D0DFF81491E7
:1005980048456BD0DFF81091484559D0DFF80C91E9
:1005A80048456AD0DFF8089148450CBF4FF0090963
:1005B8004FF00A0909FA0CFC42EA0C02AA606FEA39
:1005C8000E0C4A680133A568D70254BF0CEA05052A
:1005D8004EEA0505A5604A68E568920254BF0CEA30
:1005E80005054EEA0505E5604A686568970354BF46
:1005F8000CEA05054EEA050565604D682268ED03BD
:1006080054BF0CEA02024EEA0202102B22607FF469
:100618002EAF03B0BDE8F08F4FF0010909FA0CFCCA
:1006280042EA0C02CAE74FF0020909FA0CFC42EA56
:100638000C02C3E74FF0030909FA0CFC42EA0C026A
:10064800BCE74FF0040909FA0CFC42EA0C02B5E7D2
:100658004FF0070909FA0CFC42EA0C02AEE74FF02A
:10066800050909FA0CFC42EA0C02A7E74FF0060953
:1006780009FA0CFC42EA0C02A0E74FF0080909FA53
:100688000CFC42EA0C0299E7003C014000380240A9
:100698000000024000080240000C02400010024026
:1006A8000014024000180240001C024000200240D2
:1006B800002402400369194214BF0120002070473A
:1006C80002B9090481617047436901EA030221EA1A
:1006D800030141EA02418161704700BF002800F030
:1006E800BF812DE9F041036882B00446DD0730D5AB
:1006F8009E498A6802F00C02042A00F0F0808A6899
:1007080002F00C02082A00F0E6806368B3F5803F27
:1007180000F0EF80002B40F03981944B1A6822F4E6
:1007280080321A601A6822F480221A606368002BEB
:1007380000F00681FFF7A4FD8C4E054605E0FFF7A3
:100748009FFD401B642800F2F78033689B03F6D5B1
:100758002368990729D5854B9A6812F00C0F00F089
:1007680093809A6802F00C02082A00F08980E368F6
:100778007E4D002B00F018812B6843F001032B609D
:10078800FFF77EFD064605E0FFF77AFD801B02288D
:1007980000F2D2802B689F07F6D52B68226923F0D8
:1007A800F80343EAC2032B6023681A0753D45E0791
:1007B80031D56E4B1A6CD50040F1828000256C4E05
:1007C8003368D80540F1A880A368012B00F0FE80AB
:1007D800002B40F00181654B1A6F22F001021A6765
:1007E8001A6F22F004021A67A368002B00F0B68083
:1007F800FFF746FD5D4F41F28838064605E0FFF7F2
:100808003FFD801B404500F297803B6F9A07F6D565
:10081800002D40F01F81A369CBB1544DAA6802F0A6
:100828000C02082A00F0E580022B2B6823F0807365
:100838002B6000F01781FFF723FD044604E0FFF763
:100848001FFD001B022877D82B689B01F7D40020D6
:1008580002B0BDE8F0816369444D03B36B6F43F0A8
:1008680001036B67FFF70CFD064604E0FFF708FD80
:10087800801B022860D86B6F9B07F7D5236896E723
:100888005B685A023FF573AF384B1B689B0736D538
:10089800E368012B33D0012002B0BDE8F0816B6F13
:1008A80023F001036B67FFF7EBFC064604E0FFF754
:1008B800E7FC801B02283FD86B6F9F07F7D4DDE762
:1008C8001A6C012542F080521A641B6C03F08053A5
:1008D8000193019B73E74A6851027FF516AF234ADB
:1008E800126892037FF535AF6268002A7FF431AF52
:1008F800D1E71E4A136843F48033136016E71B4A96
:100908002169136823F0F80343EAC10313602368DD
:100918001A077FF54CAF9EE7336843F48073336062
:10092800FFF7AEFC07463368D9053FF54DAFFFF733
:10093800A7FCC01B6428F6D9032002B0BDE8F081EB
:10094800FFF79EFC094E054604E0FFF799FC401BA3
:100958006428F1D833689F03F7D4F9E6FFF790FCD1
:10096800024F41F28838064609E000BF00380240CD
:1009780000700040FFF784FC801B4045DCD83B6FCB
:100988009B07F7D4002D3FF446AF63E0B3F5A02FE3
:100998004D4B1A687FF4C3AE42F480221A601A687D
:1009A80042F480321A60C1E62B6823F001032B6001
:1009B800FFF766FC064604E0FFF762FC801B02288E
:1009C800BAD82B689907F7D42368EEE63E4A136F26
:1009D80043F00103136707E7052B3B4B1A6F7FF4BE
:1009E800FCAE42F004021A671A6F42F001021A675D
:1009F800FAE6012B6A683FF44EAF02F48003E1691E
:100A08008B427FF448AF02F03F03216A8B427FF4A8
:100A180042AF47F6C073616A1340B3EB811F7FF49E
:100A28003AAFA36A02F440315B08013BB1EB034FD4
:100A38007FF431AF02F07063E16AB3EB016F7FF4CA
:100A48002AAF236B02F0E042B2EB037F14BF012010
:100A58000020FDE61C4A136C23F080531364DAE689
:100A680001207047FFF70CFC064605E0FFF708FC7D
:100A7800801B02283FF660AF2B689901F6D4D4E9B1
:100A88000731626A0B43216B0F4E43EA8213D4E9A4
:100A98000A2043EA0063520843EA0173013A43EA31
:100AA80002436B602B6843F080732B60FFF7E8FB11
:100AB800044605E0FFF7E4FB001B02283FF63CAFC5
:100AC80033689A01F6D5C2E600380240002800F0E3
:100AD800B680624A2DE9F041136804460D4603F0DA
:100AE8000F038B420CD2136823F00F030B431360E0
:100AF800136803F00F038B4202D00120BDE8F08198
:100B08002368990716D55A0705D5554A936843F4BB
:100B1800E053936023681B0704D5514A936843F454
:100B2800604393604E4AA168936823F0F0030B4337
:100B380093602368DF0720D56268494B012A1B6848
:100B48007FD0022A78D09907D7D5454E41F2883808
:100B5800B36823F003031343B360FFF791FB074621
:100B680004E0FFF78DFBC01B40456DD8B368626891
:100B780003F00C03B3EB820FF3D1384A136803F088
:100B88000F03AB4209D9136823F00F032B431360FB
:100B9800136803F00F03AB42AFD123685A0707D598
:100BA8002F4AE168936823F4E0530B43936023686A
:100BB8001B0731D42A498B6803F00C03042B39D066
:100BC800082B18D14A684B6802F03F02496813F4B1
:100BD80080033BD02348C1F388110023A1FB000107
:100BE80029F036FC1E4B5B68C3F3014301335B00FD
:100BF800B0FBF3F300E01C4B194A1C4C92681C48EC
:100C0800C2F303121B490068A25CD3400B60FFF7D4
:100C1800F1FA0020BDE8F081114A2169936823F4B4
:100C2800604343EAC1030E4993608B6803F00C03E9
:100C3800042BC5D10B4BDFE7980186D45DE7012073
:100C480070479E0381D458E7032057E70648C1F34D
:100C58008811A1FB000129F0FBFBC3E7003C02401F
:100C68000038024040787D010024F400C4D5020811
:100C7800040002204C0302202DE9F043036883B0EE
:100C8800044613F001060DD0A04B9A6822F4000226
:100C98009A609A68416B0A439A60466B0368B6FA91
:100CA80086F6760913F4002511D0984AE16BD2F83C
:100CB8008C3023F440130B43C2F88C30E56BB5F548
:100CC800801F00F05782B5FA85F523686D09D902AF
:100CD80011D58E4A216CD2F88C3023F440030B4393
:100CE800C2F88C30236CB3F5800F00F04782002BDC
:100CF800236808BF012513F0807F18BF01269A06D4
:100D080000F1EF81DA060DD5804BD3F88C2022F064
:100D18008072C3F88C20D3F88C20A16B0A43C3F8E7
:100D28008C2023685F0409D5784A616ED2F8903028
:100D380023F440330B43C2F890302368180409D5D4
:100D4800724AA16ED2F8903023F440230B43C2F8C4
:100D580090302368D90309D56C4AE16ED2F89030F7
:100D680023F440130B43C2F8903023689A0309D543
:100D7800664A216FD2F8903023F440030B43C2F83F
:100D8800903023685F0609D5604A616CD2F89030CC
:100D980023F003030B43C2F890302368180609D5E3
:100DA8005A4AA16CD2F8903023F00C030B43C2F8D6
:100DB80090302368D90509D5544AE16CD2F89030AF
:100DC80023F030030B43C2F8903023689A0509D505
:100DD8004E4A216DD2F8903023F0C0030B43C2F87D
:100DE800903023685F0509D5484A616DD2F8903084
:100DF80023F440730B43C2F890302368180509D5D3
:100E0800424AA16DD2F8903023F440630B43C2F8F4
:100E180090302368D90409D53C4AE16DD2F8903066
:100E280023F440530B43C2F8903023689A0409D541
:100E3800364A216ED2F8903023F440430B43C2F86F
:100E4800903023685F0209D5304AA16FD2F89030FC
:100E580023F080630B43C2F89030236898020ED5C4
:100E68002A4AE16FD2F8903023F000630B43C2F8AE
:100E78009030E36FB3F1006F236808BF012513F0CA
:100E8800080F18BF0125590309D5204A616FD2F808
:100E9800903023F040730B43C2F8903023681A0255
:100EA8000AD51A4AD4F88010D2F8903023F080532B
:100EB8000B43C2F8903023685F010AD5134AD4F86F
:100EC8008410D2F8903023F000530B43C2F89030CE
:100ED800236818010AD50D4AD4F88810D2F88C3046
:100EE80023F000730B43C2F88C302368D9006DD40B
:100EF800012E02D023689A0162D5044E336823F08C
:100F080080633360FFF7BCF9074607E0003802400A
:100F1800FFF7B6F9C01B642800F2DF8033681B01B5
:100F2800F6D42368DF0713D5626B8AB9D6F8843004
:100F3800D6F8842003F4403302F0706213436268E9
:100F480043EA8213A26843EA0273C6F8843023682E
:100F58001E0304D5E26BB2F5801F00F02181D80290
:100F680004D5226CB2F5800F00F01A81D90112D590
:100F7800AB4AD2F88430D2F8841003F0706301F0E1
:100F8800E0410B43616843EA8113216943EA014365
:100F9800C2F8843023689A0100F1F380A04E3368C8
:100FA80043F080633360FFF76BF9074605E0FFF70E
:100FB80067F9C01B642800F2908033681B01F6D5DE
:100FC800012D0ED0002003B0BDE8F083944AD4F878
:100FD8008C10D2F88C3023F080630B43C2F88C302D
:100FE80086E78F4D2B6823F080532B60FFF748F975
:100FF800064604E0FFF744F9801B64286DD82B6887
:101008009F00F7D423681D0340F10181E26B002A99
:1010180040F0FD80824AD2F88830D2F8881003F474
:10102800403301F0E041D4E905500B4343EA85130E
:1010380043EA0063C2F88830D2F88C30A16A23F4FE
:10104800F853013943EA0123C2F88C302368990226
:1010580016D5E26FB2F1006F12D1714A6569D2F804
:101068008830D2F8881003F07063206A01F0E041FC
:101078000B4343EA851343EA0043C2F888302368E8
:101088001A0719D5664A6569D2F88810D2F88830E7
:1010980001F07061E06903F440330B4343EA8513C0
:1010A80043EA0073C2F88830D2F88C30E16A23F43E
:1010B80040330B43C2F88C30594C236843F08053BB
:1010C8002360FFF7DDF8054623689B003FF57AAFFC
:1010D800FFF7D6F8401B6428F6D9032003B0BDE813
:1010E800F0834F4B4F4F1A6C42F080521A641B6CBE
:1010F80003F080530193019B3B6843F480733B608A
:10110800FFF7BEF8804605E0FFF7BAF8A0EB080045
:101118006428E2D83B68DB05F6D5414F226B3B6F6C
:1011280002F4407113F4407313D08B4211D03B6F1B
:101138003A6F23F4407342F480323A673A6F22F4EC
:1011480080323A673B673B6FD8074FD4226B02F473
:101158004071B1F5407F40D0314A936823F4F813C9
:1011680093602F4A236B116FC3F30B030B43136771
:101178002368C7E5236800250126A8E5236801261A
:10118800B9E5236961681B04E26843EA8113A16831
:1011980043EA0263224A43EA0173C2F88430FDE657
:1011A8001F4AD2F88430D2F8841003F4403301F097
:1011B800E0410B43616843EA8113E16843EA016354
:1011C800C2F88430D2F88C10636A21F01F01013B09
:1011D8000B43C2F88C302368C8E61148124983686B
:1011E800114023F4F8130B438360BAE7FFF748F87C
:1011F80041F28839804606E0FFF742F8A0EB080084
:1012080048453FF66AAF3B6F9907F5D59EE7D80288
:101218007FF51DAF226C002A7FF419AFFAE600BFF4
:101228000038024000700040FFFCFF0F5C4B5D4A35
:101238000260D3F88420C2F388124260D3F8842075
:10124800C2F301420261D3F88420C2F30362C26090
:10125800D3F88420C2F302728260D3F88820C2F3E4
:1012680088124261D3F88820C2F301420262D3F89F
:101278008820C2F303628261D3F88820C2F3027225
:10128800C261D3F88C2002F01F024262D3F88C208E
:10129800C2F304228262D3F88C20C2F30142C262F4
:1012A800D3F88C2002F44012C263D3F88C2002F4E5
:1012B800400202649A6802F400024263D3F8902064
:1012C80002F440324266D3F8902002F4402282664B
:1012D800D3F8902002F44012C266D3F8902002F4AA
:1012E80040020267D3F8902002F003024264D3F868
:1012F800902002F00C028264D3F8902002F03002B1
:10130800C264D3F8902002F0C0020265D3F890209E
:1013180002F440724265D3F8902002F4406282657C
:10132800D3F8902002F44052C265D3F8902002F41A
:1013380040420266D3F8902002F040724267D3F828
:10134800902002F080628267D3F8902002F0006259
:10135800C267D3F8902002F08052C0F88020D3F8FA
:10136800902002F00052C0F88420D3F88C2002F0BC
:101378000072C0F88820D3F88C2002F08062C0F890
:101388008C2099681A6F01F4F81102F440720A432C
:101398000263D3F88C3003F080738363704700BF17
:1013A80000380240F1FFFF1CB0F5002F36D0B0F531
:1013B800801F31D1374AD2F88C3003F44003B3F59B
:1013C800000F44D038D8002B43D0B3F5800F23D179
:1013D800536813F4800F536808BF2F4903F03F0385
:1013E80018BF2E49B1FBF3F12A4BD3F88420D3F868
:1013F8008400C2F30362D3F88C30C0F3881003F082
:101408001F0301FB00F00133B0FBF2F0B0FBF3F077
:101418007047B3F5401F12D0002070471D4AD2F81C
:101428008C3003F44013B3F5001F10D0F1D883B10A
:10143800B3F5801FCCD0EFE7B3F5400FECD152687D
:10144800154B12F4800F154808BF1846704714480A
:101458007047536813F4800F536808BF0E4903F0B0
:101468003F0318BF0D49B1FBF3F10A4BD3F88820AD
:10147800D3F88800C2F30362D3F88C30C0F3881025
:10148800C3F3042301FB00F00133B0FBF2F0B0FB1F
:10149800F3F07047003802400024F40040787D01E2
:1014A8000080BB001A4B30B51A6C83B0194C42F05F
:1014B80080521A641B6C03F080530193019B2368CC
:1014C80043F480332360FEF7DBFE054605E0FEF7B4
:1014D800D7FE401BB0F57A7F17D86368DA03F6D5D4
:1014E80023680C4D43F400332360FEF7C9FE04461D
:1014F80005E0FEF7C5FE001BB0F57A7F05D86B68DE
:101508009B03F6D5002003B030BD032003B030BDE7
:10151800003802400070004038B50446FEF7B0FEBF
:10152800002C7DD0226800230221054684F834303F
:1015380084F83510136823F00103136004E0FEF704
:101548009FFE431B052B4FD823681A68D107F6D492
:10155800D4E90120E16802431D68606A0A432169F1
:10156800042842EA0102616942EA0102A16942EAE9
:101578000102E16942EA0102216A42EA01023549AF
:1015880001EA050142EA010203D1D4E90B10014343
:101598000A431A602168626A4B69042A23F0070328
:1015A80043EA020327D04B6121682B4BCAB22B4870
:1015B800103AA3FB02535F2A4FF03F024FF0010598
:1015C8004FEA1313C05C264B02FA00F2E06503EA07
:1015D80001034FF0000188BF04330846A3659A60F1
:1015E800616584F8355038BD0323202218466265AA
:1015F80084F8353038BDD4E90A2013430028D2D006
:10160800A5697DB1B5F5005F16D0022A03D9032A72
:10161800C9D1C201C7D540220023626584F835309C
:10162800012038BD012A03D032F00202BBD1F0E715
:10163800B0F1C07FB7D1EEE7032AB4D801A555F8B9
:1016480022F000BF1F1600081B1600081F1600080E
:10165800391600083F8010E0ABAAAAAA48A70208DA
:1016680000FCFFFF002840D090F835200346022AEE
:10167800D0B23CD0002230B4186821251C4C016837
:1016880021F00101016019680A6019684A60196847
:101698008A601968CA6019680A61A2F15532196826
:1016A8004D611868C1B21039A2FB01525F29114976
:1016B8004FEA121201EA00014FF03F00A45C4FF01C
:1016C800000288BF0431A040DC6599658860104637
:1016D8005A65DA641A6583F8352083F83420C3E93B
:1016E8000F22C3E9112230BC7047012070477047B0
:1016F80048A7020800FCFFFF70B490F834C0856D5D
:10170800BCF1010F0BD04FF0010C80F834C090F8F9
:1017180035C0BCF1010F05D0002380F83430022019
:1017280070BC70470224066880F835400024446580
:10173800346824F480243460046863608368402B30
:1017480003681AD099600368DA60C26D3F2393403A
:10175800AB600268136843F016031360036C23B18F
:101768000268136843F008031360026800201368D6
:1017780043F00103136070BC70479A600368D96036
:10178800E3E700BF70B50446856DFEF779FD94F870
:101798003530022B06D0802301206365002384F8AE
:1017A800343070BD22680646136823F016031360B0
:1017B8002268536923F080035361236C5BB322686A
:1017C800136823F0080313602268136823F00103E9
:1017D800136004E0FEF754FD831B052B11D8236822
:1017E8001B6813F00103F5D1E16D3F221846002371
:1017F80002FA01F10122A96084F8352084F8343016
:1018080070BD032320221846626584F83530002312
:1018180084F8343070BDA36C002BD0D1D4E700BF5E
:1018280090F835200346022A03D0802201205A6509
:10183800704702680521002083F83510136823F0EB
:1018480001031360704700BFF0B500226D4B83B0F1
:1018580004461E6801920822D0E916733D6802FA10
:1018680003F1294204D001680868400700F19E800E
:1018780001229A402A4204D021684969090600F1E8
:101888008E8004229A402A4203D02168096888077A
:101898007ED410229A402A4203D021680968090799
:1018A80064D4202202FA03F32B4215D0226812686E
:1018B800D50611D5BB6094F83530052B35D0236893
:1018C8001A68500340F186801B68190340F1918023
:1018D800E36B0BB120469847636D002B44D0636DD2
:1018E800DA071BD522680521474B84F83510A3FB7E
:1018F8000636136823F00103B60A136003E0236871
:101908001B68DB0704D5019B0133B3420193F6D969
:101918000122002384F8352084F83430E36C1BB3AB
:10192800204603B0BDE8F04018472268136823F04A
:10193800160313602268536923F080035361236CF4
:10194800002B5BD02268136823F008031360E26D54
:101958003F23012193400022BB60236D84F835109A
:1019680084F83420002BDBD103B0F0BDBA602368C3
:101978001A68500327D41A68D20503D41A6822F0CB
:1019880008021A60236C0BB120469847E36D88E77C
:10199800BA60636D43F004036365E36D79E7BA6089
:1019A800636D43F002036365E36D6AE70B6823F038
:1019B80004030B60E36D9A40BA60636D43F0010362
:1019C8006365E36D54E71B681903DBD5A36C002B33
:1019D800DAD1DBE71A6812F480727FF479AF1968FC
:1019E80021F010011960012384F8342084F835307F
:1019F8006EE7636C002B7FF46DAF6DE7A36C002B73
:101A0800A0D1A4E74C030220B5814E1B704700BF4C
:101A1800002834D010B590F85130044603F0FF0286
:101A280043B321680222636884F851200A6822F4CB
:101A380040321A43134B0A602168A0684A6B22F0AF
:101A4800070202434A632268E168106C03400B43B3
:101A580013642168D4E904034A6B5B0522F440123D
:101A680043EA0053002013434B630123606584F865
:101A7800513010BD80F85020FFF7C8FFD1E7012092
:101A8800704700BF00C0FFFF30B490F85040012CF1
:101A98003BD00124029D80F8504045EA03430224CC
:101AA800056880F851406C6C04F0404C43EA0C0324
:101AB8006B640368DA634368B3F5403F09D0036891
:101AC800D96002680020136843F00103136030BC3A
:101AD80070478368B3B1012B25D0022B01F47F0234
:101AE80001F47F45CCB221D0032B01F07F410FD008
:101AF800130D2D0B1B02090F43EA051343EA1413B8
:101B080043EA013103689963DBE7022030BC704780
:101B1800D30CED0A9B02C90F43EA451343EAD403E9
:101B280043EAC131EEE721F07F41EBE7D30CAD0A80
:101B3800DB0243EA451343EAD401E3E770B5002327
:101B480082B004460D46019303681A68D6070FD47D
:101B5800DA69596A0A43910632D412210122002017
:101B6800996084F85120002384F8503002B070BD89
:101B7800FEF786FB0646681C236852D15A6896070A
:101B8800E6D45A680192019A12F0210FF6D0019A10
:101B9800910603D5626D42F002026265019AD2078E
:101BA80003D5626D42F00102626521210422996029
:101BB80084F851200120002384F8503002B070BD11
:101BC800FEF75EFB6A1C236806463BD15A68D106BD
:101BD800C3D45A680192019A12F0290FF6D0019ADB
:101BE800160703D5626D42F004026265019A9506F4
:101BF80003D5626D42F002026265019AD00703D5EF
:101C0800626D42F00102626529210422996084F81C
:101C18005120CFE7FEF734FB801BA8421CD8DDB16A
:101C280023685A68900793D45A680192019A12F06F
:101C3800210FEFD0ABE7FEF723FB801BA8420BD8A0
:101C480055B123685A68D20687D45A680192019A16
:101C580012F0290FEFD0C2E7636D0322032043F08F
:101C68002003636584F851207DE700BF704700BFFB
:101C7800704700BF70B5036804465D681E68EA07D0
:101C880001D5F10559D4AA0601D5B3043DD42807D6
:101C980001D5310522D46A0701D5730577D4A80781
:101CA80001D5B10504D4EA0601D5F3045BD470BDAF
:101CB8002268136823F400731360022223689A6071
:101CC8000122636D6365002384F8512084F8503045
:101CD800A369002BE7D020469847E4E722681368F9
:101CE80023F400631360082223689A600422636D5A
:101CF8001343636584F851200022E36984F8502077
:101D0800002BC8D020469847C5E72268136823F4FB
:101D180000531360202223689A600422636D43F005
:101D28000203636584F851200022E36984F8502097
:101D3800002BACD020469847A9E71A6822F4807295
:101D48001A600122436D43F00103436503689A60FA
:101D5800042380F85130002380F85030C369002BE9
:101D680091D098478FE72268102001210025136839
:101D780023F480531360236898602046636D84F8C9
:101D88005050636584F85110FFF772FF70BD2268E8
:101D98002046136823F480631360042223689A6042
:101DA800FFF764FF7BE700BF90F85020012A52D06C
:101DB800034601EB4100022203EBC00030B40124CA
:101DC80083F8512083F8504001FA04FC026B846ABE
:101DD8001205456B42EA0442446AC06A2243093C40
:101DE800012C42EA455232D942EA00621868C9B960
:101DF800446A1A492140114341621A68196A91617B
:101E08005A6A093A012A04D8DA6A196822F07F4224
:101E18008A6200220121104683F8511083F850206D
:101E280030BC7047C56961440C4C03EBC1012C40C0
:101E38001443C4611A68086A10614A6A093A012A97
:101E4800E7D8CA6A196822F07F420A62E1E700F01F
:101E58007F400243CAE70220704700BFF0FFCC0072
:101E6800704700BFF0B138B590F82C3004460D46E5
:101E780003F0FF028BB12146022384F82C3051F87D
:101E8800040B02F083F862682946206802F0B4F86F
:101E98000123002084F82C3038BD80F82D20FFF76E
:101EA800DFFFE8E70120704770B590F82C30054651
:101EB800022BD8B204D000F0FB04012C01D0012081
:101EC80070BD02230E46286885F82C3002F0DCF835
:101ED8003368022B03D085F82C40002070BD052301
:101EE80085F82C30F9E700BF38B590F82C30044657
:101EF800022BD8B205D094F82C30012BDDB201D0DA
:101F0800012038BD0223206884F82C3002F0D4F870
:101F1800002084F82C5038BD704700BF00285BD0E3
:101F280038B590F8A130044603F0FF02002B4ED0DC
:101F38002268022384F8A130936923F070439361E7
:101F4800E0682268D4E901310B43216903430B435C
:101F580091690B4393612268D4E9051343EA01436D
:101F680093602268D4E9071343EA0143D3602268E7
:101F7800D4E9091343EA014313612268D4E90B1336
:101F880043EA01435361226894F83500D36A94F810
:101F9800361003F07F43D362226894F83430D56A50
:101FA8002B4343EA0023002043EA0143D36222681B
:101FB800536B43F0060353632268936943F00103AC
:101FC80093610123C4F8A40084F8A13038BD80F8D7
:101FD800A020FFF7A1FFABE701207047704700BFC3
:101FE800704700BF704700BF70B5036804469D6B1B
:101FF8005E6B6A0701D571071ED4AA0701D5B3071E
:102008002FD4E80701D5F10743D42A0701D53307B0
:1020180000D470BD2268082001250021536B23F0ED
:10202800080353632368D863204684F8A15084F8D2
:10203800A010FFF7D7FF70BD5A6B22F004025A6355
:1020480004220368DA63D0F8A43043F00103C0F82F
:10205800A430002380F8A12080F8A030FFF7BEFF4D
:10206800CBE722682046536B23F002035363022216
:102078002368DA630422D4F8A43043F00203C4F8D6
:10208800A430002384F8A12084F8A030FFF7A6FF2D
:10209800B7E722682046536B23F0010353630123FB
:1020A8002268D363002284F8A13084F8A020FFF7C7
:1020B80097FFAAE790F8A030012B00F0CB8001230E
:1020C8008446F0B5342480F8A0300E46022304FB81
:1020D8000204D2010D4680F8A13002F1840E383492
:1020E8005E4F0FCE0FC40FCE0FC40FCE0FC4336890
:1020F8002360DCF800206B6802EB0E01D268C2F3A3
:102108000B421A444B6803F470434B60DCF8001030
:102118002B68581CCB687144C3F30B43034443EA50
:1021280002434B60DCF80020EB6802EB0E01D2683A
:10213800C2F30A021A448B6803F470438B60DCF81C
:102148000010AB68C86871440133C0F30A00034447
:1021580043EA02438B60DCF8003073441A6922F0CA
:1021680007021A61DCF800302A6973441A61DCF846
:102178000030A96903EB0E0295F8303043EA016399
:1021880095F8311043EA012395F8321043EA0143E8
:102198009361DCF8003073445A6922F0FF025A61F7
:1021A800DCF800306A6973445A61DCF80030734423
:1021B800DA691740DF61DCF80030EA69296A73449C
:1021C8000A43DA61DCF800306A6A73449A622B6960
:1021D800002B3DD0012B3FD09A1E072B18BF022A97
:1021E80094BF012200220132DCF8003001261C498C
:1021F80000247344D86A00F0E020D862D5E90003CF
:102208001B1AA86A02FB03F300FB02F22046033301
:1022180043EA0243DCF800207244D362DCF8003061
:1022280073441A6B11401963DCF80030EA6A73448E
:102238001A63DCF8002052F80E30334342F80E30AF
:10224800DCF800305E628CF8A1608CF8A040F0BD2C
:102258000422C9E7022070470322C5E7F8F8FFFF08
:1022680000F8FFFF10B403464A6A0020121A18BF8C
:1022780001225207DA600A6AB2FA82F25209920718
:102288009A60CA69B2FA82F25209D2075A604A6B56
:10229800013A9A61D1E90D242244013A1A62D1E93E
:1022A8000D2422440C6C013A22449A62D1E90D248F
:1022B8002244D1E90F14013A22440A441A635DF812
:1022C800044B7047704700BF002800F0028170B5CA
:1022D800437C84B004460D46002B00F0F78022684A
:1022E8000321002361740093D2F8303443F08073E3
:1022F800C2F830342368D3F8303403F08073009385
:10230800009BFDF7BDFF064606E0FDF7B9FF801B01
:10231800B0F57A7F00F2E1802368D3F80C24D0046A
:10232800F3D5D3F830146E4A0A40C3F83024226833
:10233800D5E90013D2F83004DB0243EA8103A96827
:1023480043EA0143002103430120C2F830342268E4
:102358000191D2F830340343C2F830342368D3F8FB
:10236800303403400193019BFDF790FFFDF788FF90
:10237800064606E0FDF784FF801BB0F57A7F00F281
:10238800AC802368D3F80C24D105F3D5002202923F
:102398005A6842F001025A6023685A6802F0010242
:1023A8000292029A9A6822F0FF029A602268A16853
:1023B80093680B4393602268D2F8A03043F002037D
:1023C800C2F8A0302268D2F8A03043F00403C2F863
:1023D800A0302268D2F8A43023F00303C2F8A43056
:1023E8002268E168D2F8A4300B43C2F8A430FDF7A4
:1023F80047FF23680646D3F8A42092075FD1D3F895
:10240800B02002F01402142A0CD0FDF739FF801B0B
:10241800B0F57A7F5FD82368D3F8B02002F01402B1
:10242800142AF2D16A682F49012A286838BF012284
:1024380001FB02F2A968012501F003018A4046F276
:10244800A81101FB00F0D3F8181421F03F01B2FBEA
:10245800F0F2C3F8181400232068D0F818140A43BF
:10246800C0F818242268C2F8C4302268C2F8C830FC
:1024780021680393A3614A6822F001024A60226836
:10248800516801F0010103910399D2F8941021F0E9
:102498000301C2F89410D4E90010D1F89420024343
:1024A80018462A43C1F894206361657404B070BD6E
:1024B800FDF7E6FE801BB0F57A7F0CD82368D3F8C9
:1024C800B02002F09402942AF2D1ABE7FFF7FAFEAB
:1024D80005E70120704700232374032004B070BD72
:1024E8000386FCFF00093D00704700BF00284AD062
:1024F800032330B5002585B002680446437400956F
:10250800D2F8043423F00803C2F804340368D3F87B
:10251800042402F008020092009A01955A6822F0F9
:1025280001025A6003685A6802F001020192019A96
:10253800D3F8A02022F00602C3F8A0200268029572
:10254800D2F8303423F00103C2F830340368D3F8EA
:10255800302402F001020292029A0395D3F8302443
:1025680022F08072C3F830240368D3F8303403F0C3
:1025780080730393039BFFF7B7FF284665612574B3
:10258800657405B030BD0120704700BF704700BFBB
:10259800704700BF704700BF10B503680446D3F802
:1025A8000C24D10703D5D3F80824D20762D4D3F872
:1025B8000C24910703D5D3F8082492074FD4A369B4
:1025C800002B4BD02168D1F8BC20D1F8C400D1F839
:1025D800C0300240D1F8C8100B4091B219B16169FE
:1025E80041F00101616112F4F81F03D0626942F001
:1025F80002026261D80703D5626942F0040262618F
:10260800990703D5626942F00802626113F00C0F62
:1026180003D0626942F010026261DA0603D562698A
:1026280042F020026261980603D5626942F04002D6
:102638006261590603D5626942F0800262611A0636
:1026480003D5626942F48072626113F4F85F03D0C3
:10265800636943F40073636163693BB910BD022287
:102668002046C3F81024FFF793FFA8E72046FFF79A
:1026780091FF10BD0122C3F81024FFF787FF2368DC
:1026880095E700BF027C012A00F02281034601225F
:1026980030B400681A74426B22F001024263186871
:1026A800D0F8002422F00102C0F800241868826BD8
:1026B80022F0030282631C68CA68A06B1043854A33
:1026C800A0631868C46B2240C26318680C69C26BA7
:1026D8002243814CC2631868026C22400264186865
:1026E8004D69026C2A4302641868426C22404264B5
:1026F80018688C69426C224342641868C26822F0E8
:102708000302C26018680C68C2682243C260186875
:10271800426922F0070242611868D1E9084222435F
:10272800CC6922434469224342611868026922F055
:102738000F02026118684C68026922430261186836
:10274800D0F8002422F00E02C0F8002418684C6863
:10275800D0F8002442EA4402C0F800244A68032A58
:1027680009D11868026922F48072026118688C68BD
:102778000269224302611868584C826C22408264C4
:1027880018688D6A826C2A4382641868C26C224079
:10279800C2641C68CA6AE06C1043514AE064186855
:1027A800046D224002651C68086B226D02434D4887
:1027B80022651C68626D024062651C684D6B626D23
:1027C8002A4362651C68A26D0240A2651C68A26D5E
:1027D8008D6B2A43A2651C68E26D0240E2651C68A5
:1027E800CA6BE06D10433B4AE0651868046E2240EE
:1027F800026618680C6C026E224302661868826BC7
:1028080022F40042826318684C6C826B2243826314
:102818001868826922F47F02826118688C6C826968
:1028280042EA044282611868826922F0FF028261EA
:102838001868CC6C8269224382611868826B22F422
:102848000052826318680C6D826B22438263186899
:10285800826B22F48052826318684C6D826B22432B
:1028680082631868826B22F40062826318688C6D38
:10287800826B224382631868826B22F480628263CF
:102888001868826BCC6D224382631868826B22F4CD
:102898000072826318680C6E826B22438263186828
:1028A800826B22F48072826318684C6E826B2243BA
:1028B80082631868826B22F4804282631C68886E87
:1028C8000021A26B02430846A263197430BC70470A
:1028D8000220704700C0FFFF00E0FFFF00F0FFFF8D
:1028E8000080FFFF00FCFFFF027C012A14D0034692
:1028F80001224FF0000C10B400681A74C26A22F06A
:102908001F02C26260461C68E26A0A43E26283F8F8
:1029180010C05DF8044B704702207047027C012A02
:1029280025D003460022012110B483B00068197431
:102938000092416841F001014160104619684C68F5
:1029480004F001040094009C0192D1F8044444F07E
:102958000804C1F804441968D1F804141A7401F081
:1029680008010191019B03B05DF8044B70470220F8
:10297800704700BF027C012A25D0034600220121AE
:1029880010B483B0006819740092416821F0010105
:102998004160104619684C6804F001040094009CDA
:1029A8000192D1F8044424F00804C1F804441968D9
:1029B800D1F804141A7401F008010191019B03B0C5
:1029C8005DF8044B70470220704700BF2DE9F843BB
:1029D8009946037C012B22D00123054688461746D9
:1029E8000374FDF74DFC064606E0FDF749FCA0EB35
:1029F800060CBCF57A7F10D82C68636FDB07F4D51A
:102A080047EA0923089A002043EA024343EA881365
:102A1800E36600232B74BDE8F8830320F9E702205E
:102A2800BDE8F8832DE9F8431E46037C012B63D0EB
:102A3800012381460F4690460374FDF721FC0546A5
:102A480006E0FDF71DFCA0EB050CBCF57A7F4ED81F
:102A5800D9F80020546F14F00104F2D0032E334645
:102A680028BF0323002E4AD00999012E0898097817
:102A780040EA012109D90998022E407841EA00412B
:102A880003D90998807841EA00611167099A1A44C4
:102A9800F31A19D0042B1C46117828BF0424012BE3
:102AA8000CD95078022B41EA002107D99078032BE2
:102AB80041EA004102D9D07841EA0061D9F8000022
:102AC8001B1B22440167E5D1013648EA871300241D
:102AD800D9F80020310220460E4689B206F47F0656
:102AE8000B433343D36689F81040BDE8F8830320CD
:102AF80089F81040BDE8F8830220BDE8F883089BF8
:102B08001367E1E72DE9F8431C46037CDDF82090C4
:102B1800012B00F095800123022C05460F4616462E
:102B2800037411D8B9F1060F2DD0B9F1040F73D081
:102B3800B9F1140F00F08780B9F1240F72D0002387
:102B480001202B74BDE8F883FDF79AFB804606E068
:102B5800FDF796FBA0EB0800B0F57A7FEFD82B685D
:102B68005A6FD207F4D52202B9F1060F4FEA0421B1
:102B780002F47F0289B242EA871242EA010242F075
:102B88003702DA66D1D1099B2A681B0243EA871308
:102B980043F00603D366FDF773FB002C074636DDCA
:102BA80029680FE0FDF76CFBC01BB0F57A7F29D8C8
:102BB80029684B6F5A0603D4D1F8C0309B06BED49F
:102BC800002C24DD4B6FD806ECD4042C0B6F224666
:102BD80028BF0422012C4FEA132133704FEA134017
:102BE8004FEA136306D9022C717003D9032CB07015
:102BF80088BFF370A41A1644FDF742FBC01BB0F55A
:102C08007A7FD5D9002303202B74BDE8F8830023ED
:102C180018462B74BDE8F883BF012B6847F00407FA
:102C2800DF66B8E70A99BB012A68497843EA014395
:102C38000A99097843EA012343F02403D366AAE7F3
:102C48000220BDE8F8830A99BB012A68097843EA9B
:102C5800012343F01403D3669DE700BF2DE9F84331
:102C680003689A69140440F18F80044688464FF03F
:102C780010099E6916F0100600F089800026C3F836
:102C88001C904546236837469A69920627D457BB55
:102C9800FDF7F6FA401B23681928F5D9586894F807
:102CA80042209969D2B209040BD5400409D4202ADC
:102CB80007D05A6842F480425A60FDF7E1FA236867
:102CC80005469A699106DFD4FDF7DAFA401B2368B6
:102CD8001928F6D99A69202601279206D7D517B957
:102CE8002022DA61236846F0040601259A69D7058F
:102CF80036D54FF48071500546F00106D961236836
:102D080005D54FF4806146F00806D961236892051D
:102D180005D54FF4007246F00206DA6123689A6915
:102D2800950702D500229A6223689A69D00704D4CD
:102D38009A6942F001029A6123685A682020194D65
:102D480000212A405A60636C3343636484F841006D
:102D580084F842100023012084F84030BDE8F8834D
:102D68005105CED49705D4D4002DD8D1FDF788FAD3
:102D7800A0EB08002368192802D99A69110408D41D
:102D88009A6912043FF575AF0020BDE8F88335460F
:102D9800ACE7636C20221343636484F8412084F811
:102DA8004250D7E700E800FE2DE9F04704460D46FB
:102DB800924603681027986910F0020840F0A58031
:102DC8009A6912F0100C7BD0DF61D1462368464621
:102DD800681C01D045E036B99A699106FBD516B949
:102DE8002022DA6123689A6948F0040C0121D6058B
:102DF8006AD54FF4807155054CF0010CD9612368F0
:102E080005D54FF480614CF0080CD961236897050B
:102E180005D54FF400724CF0020CDA6123689A6908
:102E2800900702D500229A6223689A69D10704D4D0
:102E38009A6942F001029A6123685A682020344D49
:102E480000212A405A60636C43EA0C03636484F8E7
:102E5800410084F842100023012084F84030BDE886
:102E6800F0879A699206BAD4002EBCD1FDF708FA09
:102E7800A0EB09002368854201D3002DF1D15868E1
:102E880094F842209969D2B209040BD5410409D4B7
:102E9800202A07D05A6842F480425A60FDF7F0F9B8
:102EA800236881469A69920692D4FDF7E9F9A0EB66
:102EB800090023681928F5D94FF02008012687E76B
:102EC8009A696146D60594D450059AD49605A0D43B
:102ED8000029A4D16A1C3FF46EAFFDF7D1F9A0EB2D
:102EE8000A03AB42236802D8002D7FF463AF9A69C6
:102EF80012F002027FF45EAF636C20210B4363641F
:102F080084F8411084F84220A5E70020BDE8F08746
:102F180000E800FE2DE9F84F1C4683460E4615468C
:102F280003684FF010089A6936EA02020CBF0122C2
:102F38000022AA4240F0BE809A6912F0100C00F0FC
:102F48008C804FF00009C3F81C80DDF828A0DBF85E
:102F580000304F46601C01D04DE03FB99A69910698
:102F6800FBD51FB92022DA61DBF800309A6949F0F5
:102F7800040C0121D70574D54FF4807154054CF029
:102F8800010CD961DBF8003006D54FF480614CF0B4
:102F9800080CD961DBF80030920506D54FF40072B1
:102FA8004CF0020CDA61DBF800309A69900703D51F
:102FB80000229A62DBF800309A69D10705D49A6931
:102FC80042F001029A61DBF800305A6820203B4C3D
:102FD800002122405A60DBF8443043EA0C03CBF866
:102FE80044308BF841008BF84210002301208BF805
:102FF8004030BDE8F88F9A699206B2D4002FB5D157
:10300800FDF73EF9A0EB0A00DBF80030844201D35B
:10301800002CF0D159689BF842209869D2B200047C
:103028000CD549040AD4202A08D05A6842F48042B0
:103038005A60FDF725F9DBF8003082469A69920656
:1030480088D4FDF71DF9A0EB0A00DBF80030192839
:10305800F4D94FF0200901277CE79A696146D70522
:103068008AD4500591D4970598D400299DD1621C23
:103078003FF459AFFDF704F90A9BC31AA342DBF8E2
:10308800003002D8002C7FF44EAF9A6936EA02026B
:103098000CBF01220022AA427FF445AFDBF844307E
:1030A800202100220B43CBF844308BF841108BF8D9
:1030B80042209AE70020BDE8F88F00BF00E800FE34
:1030C8002DE9F047036817469A69940600F198803D
:1030D80004460E464FF01008986910F0100000F0F2
:1030E80092800025C3F81C80B9462368AA46701C44
:1030F80003D048E0BAF1000F08D19A699106F9D5D2
:10310800BAF1000F02D12022DA61236845F00400E9
:1031180001219A69D5055ED54FF48071560540F0B6
:103128000100D961236805D54FF4806140F008009B
:10313800D9612368910505D54FF4007240F002006B
:10314800DA6123689A69950702D500229A62236892
:103158009A69D10704D49A6942F001029A612368F6
:103168005A682025324E002132405A60636C03436E
:10317800636484F8415084F842100023012084F8E5
:103188004030BDE8F0879A699206B9D4BAF1000FC9
:10319800BCD1FDF775F8A0EB09002368864201D37E
:1031A800002EF0D1586894F842209969D2B20904E7
:1031B80003D5410401D4202A30D19A69920696D4C5
:1031C800FDF75EF8A0EB090023681928F5D920253A
:1031D8004FF0010A8BE75505A6D49205ACD4002917
:1031E800B0D1FDF74DF8C01B2368B04200D81EB916
:1031F8009A6912F0200208D09A6992067FF56CAF9E
:103208000020BDE8F087014683E7636C20210B436B
:10321800636484F8411084F84220AEE75A6842F4A7
:1032280080425A60FDF72CF823688146C5E700BF45
:1032380000E800FE704700BF002859D010B590F88C
:103248004130044603F0FF02002B4CD022682423AF
:103258004FF0200C84F84130136823F00103136009
:10326800D4E9002323F0706313612268936823F480
:1032780000439360E3682268012BA3680CBF43F402
:10328800004343F404439360E2682368022A5A68BF
:103298000CBF42F4006222F400625A602268154BA7
:1032A80051680B4353602268D36823F40043D3600A
:1032B800A0692168D4E904321343002243EA0023B9
:1032C800CB602168D4E90730034310460B602168BE
:1032D8000B6843F001030B60626484F841C0226309
:1032E80084F8422010BD80F84020FFF7A3FFADE727
:1032F8000120704700800002704700BFB0B124234E
:1033080010B50268044680F84130136823F00103C1
:103318001360FFF7F1FF00236364184684F8413017
:1033280084F84030236384F8423010BD0120704790
:103338002DE9F047044690F8410082B02028BDF8F6
:103348002CA00C9F1ED198460A9BBBB1BAF1000F66
:1033580014D094F84030012B14D001230D46914627
:1033680084F84030FCF78CFF064620463146FFF7CC
:1033780075FC58B1012002B0BDE8F0874FF4007326
:103388006364F7E7022002B0BDE8F0870A9BC5F343
:103398000905216863622123606384F84130402372
:1033A8005D4A84F8423060642046A4F82AA04B683D
:1033B80013405FFA88F243EA0243584A2B431A4300
:1033C8004A6032463946FFF7EFFC002875D1B8F15C
:1033D800010F236868D15FFA89F29A623B4600229E
:1033E800802120460096FFF795FD002865D1638D62
:1033F80022689BB2FF2B64D9FF2349492385536870
:103408000B4048492B431943516003E0638D9BB23D
:10341800002B69D0324639462046FFF7C5FC002804
:10342800A8D1616A236809789962B4F82AC0238D03
:10343800616A0CF1FF3C013B01311FFA8CFC9BB225
:103448006162A4F82AC0618D238589B2002BDDD181
:103458000029DBD002463B46802120460096FFF734
:1034680059FD4FF0FF0C002884D1638DDFF8B0E0E0
:103478009BB22C4970462268634508D9A4F828C035
:10348800536803EA0E032B4319435160BEE7638D6B
:103498009BB22385DBB2516845EA034301400B43E5
:1034A80043F000735360B1E74FEA192239462046CA
:1034B8009A623246FFF778FC88B1002384F84030DE
:1034C80058E7638D16489BB22385DBB2516845EAFD
:1034D800034301400B4343F0007353609AE75FFADC
:1034E80089F223689A6279E7324639462046FFF71F
:1034F800E7FD00287FF43EAF236820220A4DDA61F9
:1035080021684B682B404B6084F8412084F84000C8
:1035180084F842002FE700BF009800FC002000015B
:10352800009C00FC0000FF0100E800FE2DE9F047C8
:10353800044690F8410082B02028BDF82CA00C9FCA
:103548001ED198460A9BBBB1BAF1000F14D094F86B
:103558004030012B14D001230D46914684F84030A9
:10356800FCF78EFE064620463146FFF777FB58B13A
:10357800012002B0BDE8F0874FF400736364F7E7F9
:10358800022002B0BDE8F0870A9BC5F3090522684E
:1035980063622223606384F8413040235E4984F8E3
:1035A800423060642046A4F82AA053680B405FFAB2
:1035B80088F143EA014339462B4343F400535360EF
:1035C8003246FFF7F1FB002877D1B8F1010F2368E5
:1035D8006AD15FFA89F29A623B460022402120466E
:1035E8000096FFF797FC002867D1638D22689BB28D
:1035F800FF2B66D901234849238553680B40474967
:103608002B431943516003E0638D9BB2002B6BD0B1
:103618003B460022042120460096FFF77BFC002849
:10362800A6D12168636A496A1970B4F82AC0238D43
:10363800616A0CF1FF3C013B01311FFA8CFC9BB223
:103648006162A4F82AC0618D238589B2002BDBD181
:103658000029D9D002463B46802120460096FFF734
:1036680059FC4FF0010C002882D1638DDFF8BCE0D3
:103678009BB22B4970462268FF2B08D9A4F828C0B2
:10368800536803EA0E032B4319435160BCE7638D6B
:103698009BB22385DBB2516845EA034301400B43E3
:1036A80043F000735360AFE74FEA192239462046CA
:1036B8009A623246FFF778FB88B1002384F84030DD
:1036C80056E7638D14489BB22385DBB2516845EAFF
:1036D800034301400B4313491943516098E75FFACC
:1036E80089F223689A6277E7324639462046FFF71F
:1036F800E7FC00287FF43CAF236820220A4DDA61FA
:1037080021684B682B404B6084F8412084F84000C6
:1037180084F842002DE700BF009800FC0024010156
:10372800000001010024000200E800FE009C00FCEB
:1037380090F84100704700BF704700BF002800F0B4
:10374800048170B590F87D30044603F0FF02002B29
:1037580000F0D2807E4B022021687E4A1B6884F8E4
:103768007D00A2FB03230A681B0B22F480328340EE
:103778000A60216802E00A68D00307D5013BFAD243
:10378800D4F8803043F04003C4F88030E368012B5C
:1037980000F0AF80022B0BBF21220122202300233F
:1037A800A568022D00F09B80032D00F09780A5F1FD
:1037B8000105B5FA85F56D09AD02674A914200F039
:1037C80089802032914200F08580644AC2F8003C2A
:1037D800E2692368D2B1604A934200F092802032B5
:1037E800934200F08E805E4A934200F0958020322A
:1037F8009A1AB2FA82F25209002A40F08D801146D4
:103808002262226B042A01D1490821626268E16BB5
:1038180032F0020266D1013918BF01214902186845
:10382800504A02401A60266B636822683343666B0D
:1038380010683343A66B3343666A334326693343C0
:10384800666933430343206A43EA005346482B43DF
:103858000B43136023685A6810405860A26AA36932
:103868002168E56A134348682B43404A03434B6089
:10387800236899680A409A60A26C236D2168E56CF8
:1038880013438868226C2B43013A03434FF220000C
:103898001343626C013A43EA02238B602268D368BF
:1038A8000340D3602068D4E91532C1681343226EFF
:1038B8000B43E16D43EA02430139002243EA012345
:1038C800C3600123C4F88020104684F87D3084F852
:1038D8007C2070BD214AC2F8003879E713464FF4BE
:1038E80000656AE7A1F10101B1FA81F149094902CC
:1038F80095E71122102353E780F87C20FFF71CFF7F
:1039080028E74FF40020FDF74FFD2368144A93423F
:1039180002D02032934204D14FF48010FDF744FDC9
:10392800236800EB8000E16942004902B2FBF1F232
:103938000F49A1FB0201C90801EB8100A2EB40027B
:10394800092A08BF01310A465AE70120704700BF1B
:103958004C0302201BECCB95045801400050014059
:10396800045C014010C005FFF01FFFFF0080F8FF56
:10397800CDCCCCCC704700BF002834D00221002227
:1039880010B5044603684FF0FF3084F87D101A61C3
:10399800164B2168164A88611B682168A2FB03231D
:1039A8000A681B0B22F480329B000A60216802E03F
:1039B8000A68D20307D5013BFAD2D4F8803043F025
:1039C8004003C4F880304B68204643F008034B603E
:1039D800FFF7D0FF0023C4F88030184684F87D3004
:1039E80084F87C3010BD0120704700BF4C030220D2
:1039F8001BECCB9538B590F87C30012B5AD02F4B67
:103A08000446016801202E4A1B6884F87C00A2FB4A
:103A180003230A681B0B22F480329B000A6021688A
:103A280002E00A68D20307D5013BFAD2D4F8803005
:103A380043F04003C4F880300B6823F400330B6074
:103A4800E06E18B194F87D30122B23D00025206F3A
:103A580018B194F87D30222B0CD022680120002167
:103A6800536843F00803536084F87D00284684F8BF
:103A78007C1038BDFDF786FE0028EED0236F5B6D05
:103A8800802BEAD0D4F88030012543F08003C4F8B5
:103A98008030E2E7FDF776FE0028D7D0E36E5B6D55
:103AA800802BD3D0D4F88030012543F08003C4F8AC
:103AB8008030CCE70225284638BD00BF4C030220E1
:103AC8001BECCB9538B590F87C30012B44D0344BA7
:103AD800044601680120334A1B6884F87C00A2FB75
:103AE80003230A681B0B22F480329B000A602168BA
:103AF80002E00A68D20307D5013BFAD2D4F8803035
:103B080043F04003C4F880300D6815F4003511D037
:103B18000B6823F400330B60E06E18B194F87D3025
:103B2800122B2DD00025206F18B194F87D30222B50
:103B380015D0216800224FF0FF300A612368986190
:103B4800284621684B6843F008034B60012384F83A
:103B58007C2084F87D3038BD0225284638BDFDF725
:103B680011FE0028E5D0236F21685B6D802BE1D022
:103B7800D4F88030012543F08003C4F88030D9E7B9
:103B8800FDF700FE0028CDD0E36E5B6D802BC9D019
:103B9800D4F88030012543F08003C4F88030C2E7B0
:103BA8004C0302201BECCB952DE9F0410F4604464F
:103BB8001546FCF765FB002F6FD0B5FA85F84FEA7C
:103BC8005818002D69D094F87D30012BDAB255D100
:103BD80094F87C30012B51D0434684F87C20122184
:103BE800E26E65F30F036766C4F88080064665F3E6
:103BF8001F4384F87D10A366304B1364304AE36E8C
:103C0800DA63304AE36EDA64E36EC3F85080226800
:103C1800B4F868301C32616EE06EFDF76DFD074642
:103C2800002838D1226B6368082A2BD0052161222D
:103C3800023B012B88BF0A4621680B6913430B61BD
:103C48002268136843F40033136005E0FCF718FB9F
:103C5800831BB3F57A7F24D82268556915F4E025CB
:103C6800F4D01368DB0303D4136843F48033136080
:103C78000023384684F87C30BDE8F08102273846B6
:103C8800BDE8F08123F00202012A15BF05211521A4
:103C980061227122CCE784F87C8001273846BDE890
:103CA800F081D4F88030032784F87C5043F0400337
:103CB8003846C4F88030BDE8F08100BF2D3D0008CB
:103CC800D13C0008393D000808B5C369806BB3F5DD
:103CD800807F1BD002680023A0F86A30136823F4A1
:103CE80000331360036B082B436812D06FF0610236
:103CF8006FF0050C0168023B012B88BF62460B6917
:103D08004FF0010C13400B6180F87DC001F060FB9F
:103D180008BD23F00202012AE8D16FF071026FF0AA
:103D2800150CE7E708B5806B01F056FB08BD00BF2E
:103D380010B5806BD0F88030C26E43F08003C0F8B5
:103D48008030536D012B06D0036F5B6D012B02D0C1
:103D580001F040FC10BD0168124C0B68124A23F4B4
:103D680000330B6023680168A2FB03230A681B0B5E
:103D780022F480329B000A6003E002681268D203D2
:103D880007D5013BF9D2D0F8803043F04003C0F8A2
:103D980080300122002380F87D20A0F86A3001F0ED
:103DA80019FC10BD4C0302201BECCB9590F87D301C
:103DB80003B9704770B5036804465A69196916074C
:103DC8001D6805D50E0703D5836FBDE870401847F9
:103DD800D00714D511F0010C11D0012220469A61A8
:103DE80094F87D20D4F88030222A18BF4FF0020CB6
:103DF80043EA0C03C4F8803001F0ECFB70BD960771
:103E080009D5880707D502229A61636F002BF5D080
:103E1800BDE87040184796061FD588061DD5202294
:103E28009A61D4F8803043F00403C4F88030AB03BF
:103E380021D5E36E002B4AD0334A1A65E06EFDF7B0
:103E4800EFFC0028DAD0D4F88030204643F0800315
:103E5800C4F8803001F0BEFB70BD560612D5480686
:103E680010D540229A61D4F8803043F00803C4F892
:103E78008030AB03DDD42046FFF724FE204601F056
:103E8800A9FB70BD560713D54D0711D504229A61B9
:103E9800D4F88030E26E43F02003C4F880300AB3CF
:103EA800194B1365E06EFDF7BBFC0028CBD170BD44
:103EB800D006A3D5CA06A1D5102220469A61D4F807
:103EC80080301343C4F8803001F084FB70BD236F49
:103ED800002B93D00C4A1A65206FFDF7A1FC00282F
:103EE800B1D170BD236F002BF4D121684FF0FF30A2
:103EF80001220B6121688861204684F87D20A4F89E
:103F08006A3001F067FB70BD153F000810B5806B83
:103F180000244FF0FF310268136823F40033136064
:103F280003681C6103689961D0F88030202B1CD08D
:103F3800124B01681B68124C0A68A4FB034322F465
:103F480080321B0B0A609B00016802E00A68D203FA
:103F580007D5013BFAD2D0F8803043F04003C0F8CF
:103F680080304B6843F008034B600122002380F83F
:103F78007D20A0F86A3001F02DFB10BD4C03022013
:103F88001BECCB9590F87D00704700BFD1E9073254
:103F980030B413434C6A0D682343164A04688DB93C
:103FA80022404C6813432343D1E902422343D1E919
:103FB800045413438A692B432343134303600020AB
:103FC80030BC704724F4F84C43EA0C03036044689F
:103FD8004B6822401343D1E902422343D1E90454F8
:103FE80013438A692B43234313434360002030BCA7
:103FF800704700BF0080FFFF30B44C69CB6804F104
:10400800FF3C8468013B4FEA0C5C1B0343EA0C034A
:10401800CAB90A6804F070448D68013A013D134337
:104028004A682343013A0C6943EA02138A69611E0C
:1040380043EA0523013A43EA014343EA0263836002
:10404800002030BC70470F4A22401A438260C36880
:104058008D6803F0704305F1FF3CD1E90024013C71
:10406800013A43EA04130C6913438A69611E43EA5F
:104078000C23013A43EA014343EA0263C360002088
:1040880030BC7047FF0F0FFF10B4D1E9003402466F
:1040980000692343D1E9021443EA4423054C01395A
:1040A80004400020234343EA411313615DF8044BA5
:1040B800704700BF0000C0FF0246054B002010B447
:1040C8005469234043EA410353615DF8044B704748
:1040D80001C0FFFF494B834210B5494C8CB041D019
:1040E800236B04224FF48070122143F002032363F0
:1040F800236B0A92002203F002030493049B022319
:10410800CDE9060106A93F48CDE90823FCF7A2F945
:104118004FF4007306A93B480693FCF79BF9236C00
:1041280000220F211F2043F400132364236C03F49F
:1041380000130593059B236A43F400132362236A43
:1041480023F400132362FCF7C5F81F20FCF7FEF8E0
:1041580000220F212020FCF7BDF82020FCF7F6F8FC
:104168000CB010BD236B04224FF48050122143F091
:1041780008032363236B03F008030193019B236B5C
:1041880043F002032363236B0A92002203F0020325
:104198000293029B0223CDE9060106A91A48CDE93C
:1041A8000823FCF757F980220B2306A91548069225
:1041B8000A93FCF74FF9236C00220F215F2043F08C
:1041C80080732364236C03F080730393039B236A37
:1041D80043F080732362236A23F080732362FCF721
:1041E80079F85F20FCF7B2F800220F216020FCF775
:1041F80071F86020FCF7AAF80CB010BD500302203B
:104208000038024000040240000C02400E4B0F49E7
:1042180010B51A6B86B00E4C42F400721A631B6B11
:1042280054F82020032403F4007351F8200001926D
:1042380001A900930122009B0494CDE90222FCF716
:1042480009F906B010BD00BF003802400C0002207A
:104258001400022004490122044B31F8201053F8BD
:104268002000FCF72DBA00BF140002200C00022029
:1042780004490022044B31F8201053F82000FCF7C1
:104288001FBA00BF140002200C000220034A044B8E
:1042980032F8201053F82000FCF716BA1400022058
:1042A8000C0002201C4B10B51A6B88B042F00102BA
:1042B8001A631B6B03F001030193019BE1B1012910
:1042C80001D008B010BD01224FF48813134C02A985
:1042D800CDE902230223002254F82000CDE904236B
:1042E800FCF7B8F800220F210620FBF7F3FF0620A1
:1042F800FCF72CF808B010BD084C0122002302A9D5
:1043080054F82000CDE9022300220223CDE904233A
:10431800FCF7A0F808B010BD0038024008000220E1
:1043280008B5034B012153F82000FCF7C3F908BD79
:104338000800022070B5324E88B03046FFF7F8F911
:1043480000285BD12F4D02212F4B04462F4AB06025
:10435800F0613062C6E90032C6E904002B6B43F015
:1043680008032B632B6B03F008030093009B2B6B54
:1043780043F002032B632B6B059003F002032448E0
:1043880001934FF48053019A039312230493042357
:10439800CDE90613012303A9F360FCF75BF880233A
:1043A80003A91C4803930B230793FCF753F82B6CC2
:1043B80022460F215F2043F080732B642B6C03F09F
:1043C80080730293029B2B6A43F080732B622B6AE3
:1043D80023F080732B62FBF77DFF5F20FBF7B6FFAE
:1043E80022460F216020FBF775FF6020FBF7AEFF28
:1043F800304608B0BDE87040FEF71EBF08B070BD7B
:1044080050030220003802400060004032279140EB
:10441800000C024000040240704700BF10B59446EB
:1044280086B00A4601464FF47A700223154C9CFA6E
:104438009CFC02900DF11600019300902046ADF807
:1044480016C0FEF775FF08B906B010BD2046FEF786
:1044580055FF2046FFF76CF903460028F4D10A49B6
:1044680001220A486361E361236284E80B00204665
:10447800C4E90323FFF72EFE2046FEF7DDFE06B053
:1044880010BD00BF50030220322791400060004059
:1044980030B50A4687B0002102231A4C4FF47A75CA
:1044A800ADF8161001460DF1160002950193009023
:1044B8002046FFF73BF828B9BDF8160040BA80B28D
:1044C80007B030BD2046FEF719FF2046FFF730F948
:1044D80003460028F0D10C4901220C486361E361CE
:1044E800236284E80B002046C4E90323FFF7F2FDAA
:1044F8002046FEF7A1FEBDF8160040BA80B207B00C
:1045080030BD00BF500302203227914000600040B8
:10451800FBF7BCBE70B5324E88B03046FFF708F9DD
:1045280000285BD12F4D02212F4B04462F4AB06043
:10453800F0613062C6E90032C6E904002B6B43F033
:1045480008032B632B6B03F008030293029B2B6B6E
:1045580043F002032B632B6B059003F002032448FE
:1045680001934FF48053019A039312230493042375
:10457800CDE90613012303A9F360FBF76BFF802342
:1045880003A91C4803930B230793FBF763FF2B6CCA
:1045980022460F215F2043F080732B642B6C03F0BD
:1045A80080730093009B2B6A43F080732B622B6A05
:1045B80023F080732B62FBF78DFE5F20FBF7C6FEAE
:1045C80022460F216020FBF785FE6020FBF7BEFE28
:1045D800304608B0BDE87040FEF72EBE08B070BD8A
:1045E800500302200038024000600040322791400A
:1045F800000C02400004024030B5134687B08C46D8
:1046080001258DF817304FF47A73154C0146029343
:104618000DF117036246204600932B460195FEF7DD
:1046280087FE08B907B030BD2046FEF767FE204672
:10463800FFF77EF803460028F4D10A490A4AE361E5
:104648002362C4E902052046C4E90012C4E9043320
:10465800FFF740FD2046FEF7EFFD07B030BD00BF75
:1046680050030220006000403227914030B50023FB
:1046780087B001250A46184C4FF47A718DF8173027
:104688000DF1170302910146009320462B46019530
:10469800FEF74CFF18B99DF8170007B030BD20464B
:1046A800FEF72CFE2046FFF743F803460028F2D118
:1046B8000A490B4AE3612362C4E902052046C4E9BA
:1046C8000012C4E90433FFF705FD2046FEF7B4FDE8
:1046D8009DF8170007B030BD50030220006000406D
:1046E8003227914030B54FF47A7485B0154D029455
:1046F800CDE900230A46012301462846FEF716FFA6
:10470800044610B9204605B030BD2846FEF7F6FD30
:104718002846FFF70DF803460028F3D10A490B4A4B
:10472800A860286128466B61EB612B62C5E900121D
:104738000122EA60FFF7CEFC2846FEF77DFD204601
:1047480005B030BD50030220006000403227914080
:10475800FBF79CBDFBF79ABD30B5184A8FB0184DD2
:10476800002312680446286805930793ADF834308F
:104778008DF836300A91FF210B92069101A90C9011
:10478800CDE90132CDE903304FF4C06322460D482C
:1047980004EB4404089307230993FDF78BFC0A4BA9
:1047A8004FF0FF31094803EB840251604FF07F411D
:1047B800906043F824100FB030BD00BF20000220E5
:1047C8001C00022000120220340402202C000220C7
:1047D800014B1860704700BF4C040220094AC00111
:1047E8000129136803F1840319580CBF41F0010132
:1047F80021F0010119501268536A43F00103536212
:10480800704700BF00120220034B044A1B6803EBE9
:10481800430342F8230070474C040220340402206A
:10482800044B054A1B6803EB430302EB8302506009
:10483800704700BF4C04022034040220044B054A90
:104848001B6803EB430302EB83029060704700BFD1
:104858004C040220340402201B4A34211B4B2DE94E
:10486800F043166883B01A4C054601FB0633194A13
:104878002046D3F85C8000231768A360E360164BDA
:10488800D3F800904FF440336360144B2360FDF776
:10489800BFF810B103B0BDE8F08331462046FDF7FC
:1048A80083FA0028F6D13B46424629462046CDF8F1
:1048B8000090FDF7E9F80028ECD10A21204603B062
:1048C800BDE8F043FDF73AB94C040220001202207B
:1048D800A8110220200002201C00022000B0024083
:1048E800374B203A2DE9F04F1C6887B0354F80468A
:1048F80004EB4403049107EB8307BB689D88D888C1
:104908001968EB1D00FB02F24FEAE30B0390C5EBBD
:10491800CB030BFB02F2DBB20593002841D08B18C6
:10492800294A34210020DFF8A4A001FB04295C46B1
:10493800049A012C93F800C002EB0006B6B207D027
:10494800022C31D1B3F800C09CFA9CFC1FFA8CFCF5
:10495800059A05F1FF3E4FF0010B029396440022A1
:10496800CDE90040AEEB020108EB0203DAF80040A3
:1049780001320BFA01F19BB2D9F85C0011EA0C0F75
:1049880004FB063314BF39687968954240F8231050
:10499800E8D8029BDDE900400130039A23448242B3
:1049A800C6D107B0BDE8F08F002DF5D05A784FEA90
:1049B8000C4C4CEA022C9A784CEA020CC8E700BF6F
:1049C8004C0402203404022000120220200002209D
:1049D8002DE9F04304461046154683B010F8012B24
:1049E8000E469846002A4BD0019225F021FD019AE7
:1049F80000F1010E234BB8F1010F23491B68DFF8C2
:104A08008C9003EB4303D9F8000001EB83039F6804
:104A1800B7F804C0B0FBFCF12AD0B8F1020F05D1F9
:104A2800A1EB0E0313FB0CF31B1B9CB223B280B249
:104A3800002BD8BF0124844517D8B2B1C5F10108AD
:104A480020463146FFF74CFF08EB0500B988D9F836
:104A5800003080B20C4415F8012F01FB1033A4B2CA
:104A68009BB28B4201D3002AEAD103B0BDE8F083A0
:104A7800A1EB0E030CFB03F304EB53039CB2D5E745
:104A88009646B7E74C040220340402202000022096
:104A98002DE9F04F204C1F46204B1546D4F800B0A6
:104AA8003422D3F8009085B01D4B06461D4C88462D
:104AB80002FB0B330BEB4B022046D3F85CA01A4BDE
:104AC80053F8223003934FF4403363600023A3600C
:104AD800A9EB0503E360154B2360FCF799FF10B1C0
:104AE80005B0BDE8F08F59462046FDF75DF900286E
:104AF800F6D109FB08622B46039920460AEB82028D
:104B08000097FCF7C1FF0028EAD10A21204605B02A
:104B1800BDE8F04FFDF712B84C0402202000022037
:104B280000120220A81102203404022000B0024022
:104B3800064929231522064810B5002482B00968C1
:104B48000094FDF743FF02B010BD00BF54040220DB
:104B5800A812022003460846012B10B582B009D9D5
:104B6800CC5C39220021CDE900400748FDF75AFF07
:104B780002B010BD4C7815220B7800210094024831
:104B8800FDF724FF02B010BDA812022020B513467D
:104B980084B00A46062500210095CDE901020448A3
:104BA800FDF7B0FF003818BF012004B020BD00BFDA
:104BB800A8120220284B00220321582010B55C6C53
:104BC80084B044F080645C645C6C04F0806401949C
:104BD800019C5C6A44F080645C625C6A24F08064D6
:104BE8005C621C6B44F400041C631C6B04F400043A
:104BF8000294029C1C6944F400041C611C6924F49E
:104C080000041C615C6C44F000645C645C6C04F03F
:104C180000640394039C5C6A44F000645C625C6A10
:104C280024F000645C62FBF755FB5820FBF78EFB11
:104C3800002203215A20FBF74DFB5A20FBF786FB85
:104C4800622000220321FBF745FB622004B0BDE887
:104C58001040FBF77BBB00BF003802407F4B2DE9BB
:104C6800F04F1A6B87B001254FF4004442F40072EC
:104C780001A907467A481A6304261B6B019403F4BA
:104C88000073DFF80092DFF8008200930323009A94
:104C98000493DFF8F8A1CDE90255FBF7DBFB2146C9
:104CA80000226F48FBF70CFD1420FBF7EFFA2A46A9
:104CB80021466B48FBF704FD6A4C0A20FBF7E6FA2D
:104CC800FFF778FF684B20462360FDF70FFC64234D
:104CD800E560002501A9019305232046A6600293FB
:104CE8000395FDF7F1FA2046FDF718FE31462046F8
:104CF800FDF7FAFDD9F8003003EB430308EB830313
:104D0800C3F808A001F004F9802805D000F080FF5E
:104D1800402814BF02250125DFF874B151488BF8EB
:104D28000050FDF727FE002F40F2E54340F2BE7128
:104D38004E4D08BF19469BF8003015BF4FF4F07070
:104D48004FF448704FF448764FF4F076484A012BF8
:104D5800286016607DD04FF0960C7823E646454CC7
:104D68004FF40052C4E90C1305234FF4006120648A
:104D78004FF400706360022326610026E36040F66A
:104D8800FF732660A3614D2366626661E664C4E929
:104D98000EEC4FF0040C4FF4004EC4E90AC3102384
:104DA800C4E911E34FF48053C4E914234FF480633A
:104DB800C4E916134FF480732146C4E9180329483F
:104DC800C4E90766FDF75EFC294A2B4813682A6880
:104DD8002A4DC662C5E9183203F123024533EB6256
:104DE80001236A626B612323EB61082303604FF49C
:104DF800C07343610723C361FBF73EFF204B214685
:104E08002846AE862B6085F836602E61FDF72AFAB3
:104E18002846FDF783F81348FDF780FD00F044F9B4
:104E2800D9F800309BF80000394603EB430308EB40
:104E38008308C8F808A028B900F0FAFE002007B0D7
:104E4800BDE8F08F304600F093FC002007B0BDE8C5
:104E5800F08F4FF0100C4FF00F0E80E70038024033
:104E680000240240A8120220006C01401C0002200D
:104E78002000022054040220A40302200012022071
:104E8800006801404C040220340402202C00022057
:104E9800500402202DE9F043224C83B0224D012614
:104EA80000274FF01009214680464FF6FF7228462A
:104EB80001972660C4F80490C4E90267FCF7F4FF80
:104EC8003046FBF7E3F9022321464FF6FF722846E6
:104ED8002360E760C4E90196FCF7E6FF0323214657
:104EE8004FF6FF72236008232846C4F80490A36095
:104EF800E760FCF7D9FF4FF40C73042221462846DB
:104F080001931023A660C4E90023019B4FF6FF72AA
:104F1800E360FCF7C9FF4146284603B0BDE8F0430B
:104F2800FCF7E2BF20050220C4120220554B0C21D9
:104F380070B59A6B8EB006464CF2037042F00102CF
:104F4800514C00259A639A6B02F001020092009A74
:104F58001A6B42F480021A631A6B02F480020192FF
:104F6800019A1A6B42F008021A631A6B02F00802DF
:104F78000292029A1A6B42F010021A631A6B02F03C
:104F880010020392039A1A6B42F020021A631A6BFA
:104F980002F020020492049A1A6B42F040021A634B
:104FA8001A6B02F040020592059A1A6B42F08002D1
:104FB8001A631A6B02F080020692069A1A6B42F480
:104FC80080721A631B6B0C91022103F48073CDE984
:104FD8000801012003210793079BCDE90A0108A9CD
:104FE8002A48FBF737FA4FF6837308A9284808932D
:104FF800FBF730FA4FF63F0308A926480893FBF75A
:1050080029FA48F2371308A923480893FBF722FA2C
:105018004FF62C7308A921480893FBF71BFA40F2B6
:10502800FF6308A91E480893FBF714FA80224FF47F
:105038000073E5622046A2604FF48062E3604FF49B
:10504800805322614FF4804263614FF40033A261C0
:1050580003222362134B256334632360A2626560D5
:10506800E5616562A663FCF7FDFA2046FCF754FA91
:105078002A460F213820FBF72DF93820FBF766F96F
:105088000EB070BD00380240C0040220000C02407F
:10509800001002400014024000180240001C0240A8
:1050A800002002401064024038B507221A4C1B4DFC
:1050B800042302211A48EA60E3602960A9610021FB
:1050C80020602046E161A162C5E901232022402336
:1050D800C4E904234FF400634FF4C07223624FF411
:1050E8008053A261022263620223C4E90111C5E967
:1050F8000423FFF71BFF294620460A4CFCF7B2FEA3
:10510800034640F20360003B18BF01232370FFF7FA
:10511800C1FE207838BD00BFC4120220300502202D
:10512800400100A034000220F8B5144C0546144E86
:105138000F46236830789847636854209847C0B270
:10514800112809D0636870209847C3B27020112BCA
:10515800307003D00320F8BD54203070BD422CBFFE
:105168000C250125074B1D70074DA3682C60984737
:105178002B683078DB6898470020F8BD380002209B
:105188005C0502205D050220600502202DE9F04F34
:10519800DFF890B18BB00024604FDBF80030054693
:1051A80003901B6938780894CDE90644984728701D
:1051B800002800F091802B4604AE05ADDFF868A109
:1051C80003F10908DFF864910293DBF800303146F7
:1051D8002A4638785B699847514B19780B077ED473
:1051E80032882B88880704D5C2F54772033292B2F9
:1051F8003280490704D5C3F5EF7301339BB22B8086
:10520800DAF80010D9F800E08A421FFA81FC1FFA88
:105218008EF08CBFA2EB0C01ACEB0201734589B296
:105228008CBFA3EB000EA0EB030E1FFA8EFE714499
:10523800052905DD94461846CAF80020C9F800304B
:10524800029B06AA214623F802CF9880029308AB56
:10525800009307AB387800F063FA069B08F8013F23
:10526800079B88F80430089B032B06D8DFE803F077
:1052780002484440012388F80230039B0134023677
:1052880002351B780AF1040A09F10409A3429CD8E3
:10529800002309A93878099300F030FA099B1C2BE0
:1052A80012D81C2B20D8DFE803F0141F1F1F1F1F64
:1052B8001F1F1F1F1F1F1F1F1F1F371F1F1F331FCA
:1052C8001F1F351F1F1F3100482B1DD0492B0BD125
:1052D8000623039A002013610BB0BDE8F08F3388D2
:1052E8002A882B8032807DE701200BB0BDE8F08F43
:1052F800002388F80230C0E7032388F80230BCE7AF
:10530800022388F80230B8E70523E2E70423E0E740
:105318000223DEE70323DCE70123DAE75C0502204A
:105328005D05022060050220540502204C0502207C
:1053380038B50D4B05460C468AB21B680146342029
:10534800DB68984770B9B4F5003F2946074834BF71
:10535800C4F34F024FF6FF72FEF726FC003818BF61
:10536800012038BD012038BD7015022030140220FC
:1053780010B504460A48FEF73DFB0A4B3420214687
:105388001B689B69984718B9012C03D0002010BDF1
:10539800012010BD2046FAF779FF0020F7E700BF8B
:1053A800301402207015022010B5084C01462268FE
:1053B8002046136823F4803313602166FEF7BEF994
:1053C8002268136843F48033136010BD3014022040
:1053D80008B524F0F9FC08BD08B524F0B1FC08BDF7
:1053E80030B5394C8BB000220546636C04A93748A8
:1053F80043F480036364636C03F480030093009BAD
:10540800236B43F040032363236B03F040030193B2
:10541800019B236B43F010032363236B03F01003FA
:105428000293029B06239FED267B089303238DEDB1
:10543800047BCDE90623FBF70DF8802304A9244853
:105448000493FBF707F8236B224A43F48003236392
:10545800236B296803F4800391420393039B09D0CB
:1054680000220E213920FAF735FF3920FAF76EFFAE
:105478000BB030BD184C4FF48062002340212261EC
:105488004FF4006263602046A1604FF40051E3606E
:10549800E362626123634FF48073104AA1614FF4A1
:1054A800003122600422E3610323EC66A5632162D4
:1054B8006262A362FCF7D6F82046FCF72DF8CFE726
:1054C8007000000002000000003802400010024096
:1054D8000018024004580140680502202864024070
:1054E8002DE9F041354C1646354D0746354A2046DC
:1054F80025608846536823F480335360FEF73CFAEE
:1055080020460022314624F06FFB20462560FEF736
:1055180039FD00284DD000252A4A294B0420656210
:1055280065602563A563A5606561E5602562E5643E
:10553800E6612360C4E90A55C4E915555368012595
:1055480023F48033536080234022E563636323643C
:105558004FF48033A561C4E911234FF480232365F8
:105568000F23C4E917034FF4005314482361FEF7CF
:10557800E5F822683420144C136843F48033136030
:10558800A368984748F69413984202D02846BDE885
:10559800F081E36A342098470C4833464246046059
:1055A800394624683420A047003818BF0120BDE8D8
:1055B800F08101462046FFF713FFACE730140220C4
:1055C8000458014000580140640002207015022070
:1055D800704700BF026808B5044B9A4202D0FFF733
:1055E800F7FF08BD24F034FC08BD00BF0458014093
:1055F800704700BF0020704710B50446FEF78AFFC9
:10560800A821E0B2FFF732F810BD00BF10B50024A2
:1056180082B00221C0B28DF80740FFF727F88DF855
:1056280007009DF8073003F00F038DF807309DF849
:105638000730022B01D98DF807409DF8071000228A
:10564800034B9DF8070059709A7002B010BD00BF57
:10565800C805022070B5164C154682B0A37862784A
:105668009A4220D90E4603B3012B0CBF0921002111
:105678000423C0B20DEB0302FFF734F89DF80430A1
:105688009DF805201B02A17803F4706301311A43C9
:105698009DF80630A1701B0232809DF8072003F4A4
:1056A800706313432B8002B070BD0321E0E700BF95
:1056B800C80502200122A421C0B2FEF79DBF00BF89
:1056C8000022A421C0B2FEF797BF00BF064A137894
:1056D800984204D05178884201D013B101B1704783
:1056E8000123D054FEF716BFCC050220704700BF37
:1056F8000022A421C0B2FEF77FBF00BF10B500236F
:1057080082B00C46C0B201218DF80730FEF7AEFF1B
:105718008DF807009DF80730236002B010BD00BF68
:1057280030B5124C83B094F801C08C4519D9154690
:105738001C46C1B101290CBF0D210021032301AA78
:10574800C0B2FEF7CFFF9DF805309DF806201B116B
:105758009DF80410920903F0040329602360069B56
:105768001A6003B030BD0721E8E700BFC805022072
:1057780038B504460D460020CA49FFF7EBF9CA4977
:105788000320FFF7E7F9C9490020FFF7E3F9C84903
:105798000220FFF7DFF9C5490020FFF7DBF9C5490B
:1057A8000020FFF7D7F90A20FEF7D2FFC2490020F0
:1057B800FFF7D0F9C1490020FFF7CCF90A20FEF71E
:1057C800C7FFBF490020FFF7C5F9BE490020FFF712
:1057D800C1F9BD490020FFF7BDF9BC490020FFF71A
:1057E800B9F9BB490020FFF7B5F9BA490020FFF71E
:1057F800B1F9AC490020FFF7ADF9B7490020FFF730
:10580800A9F9B6490020FFF7A5F9B5490020FFF727
:10581800A1F9B4490020FFF79DF9B3490020FFF72B
:1058280099F9B2490020FFF795F9B1490020FFF72F
:1058380091F9B0490020FFF78DF9A4490020FFF73E
:1058480089F998490020FFF785F9AB490220FFF74D
:1058580081F9AA490020FFF77DF9A9490020FFF73F
:1058680079F9A8490020FFF775F9A7490020FFF743
:1058780071F9A6490020FFF76DF9A5490020FFF747
:1058880069F996490020FFF765F9A2490020FFF75A
:1058980061F994490020FFF75DF99F490020FFF75F
:1058A80059F99E490020FFF755F99D490220FFF755
:1058B80051F97E490020FFF74DF99A490620FFF774
:1058C80049F999490020FFF745F998490E20FFF753
:1058D80041F997490020FFF73DF996490E20FFF757
:1058E80039F995490020FFF735F994490A20FFF75F
:1058F80031F993490020FFF72DF992490020FFF76D
:1059080029F96A490020FFF725F98F490A20FFF78E
:1059180021F98E490020FFF71DF98D490F20FFF767
:1059280019F981490020FFF715F98A490F20FFF777
:1059380011F97F490020FFF70DF987490A20FFF781
:1059480009F97D490020FFF705F984490F20FFF781
:1059580001F97B490020FFF7FDF881490F20FFF787
:10596800F9F880490020FFF7F5F87F490A20FFF78A
:10597800F1F87E490020FFF7EDF87D490A20FFF78E
:10598800E9F84A490020FFF7E5F87A490A20FFF7C5
:10599800E1F86E490020FFF7DDF877490F20FFF79F
:1059A800D9F861490020FFF7D5F874490F20FFF7AF
:1059B800D1F85F490020FFF7CDF871490A20FFF7B9
:1059C800C9F85D490020FFF7C5F86E490F20FFF7B9
:1059D800C1F85B490020FFF7BDF86B490F20FFF7BE
:1059E800B9F83E490020FFF7B5F868490020FFF7ED
:1059F800B1F867490020FFF7ADF866490020FFF7C6
:105A0800A9F865490020FFF7A5F864490020FFF7C9
:105A1800A1F824490020FFF79DF861490320FFF70A
:105A280099F820490020FFF795F81E490020FFF754
:105A380091F85C491020FFF78DF81A490020FFF70C
:105A480089F859491020FFF785F800205749FFF7D2
:105A580081F87820FEF77CFE002C00F0BA80022C3A
:105A680003D153490020FFF775F8012D00F0B880E5
:105A780050490020FFF76EF84F490020FFF76AF8F9
:105A88004E490020FFF766F84D490020FFF762F8FD
:105A98004C490020FFF75EF802490020FFF75AF84A
:105AA800002091E0B0CE0208F8CF0208ACCE020880
:105AB800F4CF0208A8CE0208A4CE0208A0CE02089D
:105AC8009CCE020898CE020894CE020890CE020816
